{
  "_format": "hh-sol-artifact-1",
  "contractName": "POLPBadge",
  "sourceName": "contracts/POLPBadge.sol",
  "abi": [
    {
      "inputs": [],
      "stateMutability": "nonpayable",
      "type": "constructor"
    },
    {
      "inputs": [
        {
          "internalType": "address",
          "name": "sender",
          "type": "address"
        },
        {
          "internalType": "uint256",
          "name": "tokenId",
          "type": "uint256"
        },
        {
          "internalType": "address",
          "name": "owner",
          "type": "address"
        }
      ],
      "name": "ERC721IncorrectOwner",
      "type": "error"
    },
    {
      "inputs": [
        {
          "internalType": "address",
          "name": "operator",
          "type": "address"
        },
        {
          "internalType": "uint256",
          "name": "tokenId",
          "type": "uint256"
        }
      ],
      "name": "ERC721InsufficientApproval",
      "type": "error"
    },
    {
      "inputs": [
        {
          "internalType": "address",
          "name": "approver",
          "type": "address"
        }
      ],
      "name": "ERC721InvalidApprover",
      "type": "error"
    },
    {
      "inputs": [
        {
          "internalType": "address",
          "name": "operator",
          "type": "address"
        }
      ],
      "name": "ERC721InvalidOperator",
      "type": "error"
    },
    {
      "inputs": [
        {
          "internalType": "address",
          "name": "owner",
          "type": "address"
        }
      ],
      "name": "ERC721InvalidOwner",
      "type": "error"
    },
    {
      "inputs": [
        {
          "internalType": "address",
          "name": "receiver",
          "type": "address"
        }
      ],
      "name": "ERC721InvalidReceiver",
      "type": "error"
    },
    {
      "inputs": [
        {
          "internalType": "address",
          "name": "sender",
          "type": "address"
        }
      ],
      "name": "ERC721InvalidSender",
      "type": "error"
    },
    {
      "inputs": [
        {
          "internalType": "uint256",
          "name": "tokenId",
          "type": "uint256"
        }
      ],
      "name": "ERC721NonexistentToken",
      "type": "error"
    },
    {
      "inputs": [
        {
          "internalType": "address",
          "name": "owner",
          "type": "address"
        }
      ],
      "name": "OwnableInvalidOwner",
      "type": "error"
    },
    {
      "inputs": [
        {
          "internalType": "address",
          "name": "account",
          "type": "address"
        }
      ],
      "name": "OwnableUnauthorizedAccount",
      "type": "error"
    },
    {
      "anonymous": false,
      "inputs": [
        {
          "indexed": true,
          "internalType": "address",
          "name": "owner",
          "type": "address"
        },
        {
          "indexed": true,
          "internalType": "address",
          "name": "approved",
          "type": "address"
        },
        {
          "indexed": true,
          "internalType": "uint256",
          "name": "tokenId",
          "type": "uint256"
        }
      ],
      "name": "Approval",
      "type": "event"
    },
    {
      "anonymous": false,
      "inputs": [
        {
          "indexed": true,
          "internalType": "address",
          "name": "owner",
          "type": "address"
        },
        {
          "indexed": true,
          "internalType": "address",
          "name": "operator",
          "type": "address"
        },
        {
          "indexed": false,
          "internalType": "bool",
          "name": "approved",
          "type": "bool"
        }
      ],
      "name": "ApprovalForAll",
      "type": "event"
    },
    {
      "anonymous": false,
      "inputs": [
        {
          "indexed": false,
          "internalType": "uint256",
          "name": "_fromTokenId",
          "type": "uint256"
        },
        {
          "indexed": false,
          "internalType": "uint256",
          "name": "_toTokenId",
          "type": "uint256"
        }
      ],
      "name": "BatchMetadataUpdate",
      "type": "event"
    },
    {
      "anonymous": false,
      "inputs": [
        {
          "indexed": false,
          "internalType": "uint256",
          "name": "_tokenId",
          "type": "uint256"
        }
      ],
      "name": "MetadataUpdate",
      "type": "event"
    },
    {
      "anonymous": false,
      "inputs": [
        {
          "indexed": true,
          "internalType": "address",
          "name": "previousOwner",
          "type": "address"
        },
        {
          "indexed": true,
          "internalType": "address",
          "name": "newOwner",
          "type": "address"
        }
      ],
      "name": "OwnershipTransferred",
      "type": "event"
    },
    {
      "anonymous": false,
      "inputs": [
        {
          "indexed": true,
          "internalType": "address",
          "name": "from",
          "type": "address"
        },
        {
          "indexed": true,
          "internalType": "address",
          "name": "to",
          "type": "address"
        },
        {
          "indexed": true,
          "internalType": "uint256",
          "name": "tokenId",
          "type": "uint256"
        }
      ],
      "name": "Transfer",
      "type": "event"
    },
    {
      "inputs": [
        {
          "internalType": "address",
          "name": "to",
          "type": "address"
        },
        {
          "internalType": "uint256",
          "name": "tokenId",
          "type": "uint256"
        }
      ],
      "name": "approve",
      "outputs": [],
      "stateMutability": "nonpayable",
      "type": "function"
    },
    {
      "inputs": [
        {
          "internalType": "address",
          "name": "owner",
          "type": "address"
        }
      ],
      "name": "balanceOf",
      "outputs": [
        {
          "internalType": "uint256",
          "name": "",
          "type": "uint256"
        }
      ],
      "stateMutability": "view",
      "type": "function"
    },
    {
      "inputs": [
        {
          "internalType": "address",
          "name": "to",
          "type": "address"
        },
        {
          "internalType": "uint256",
          "name": "badgeId",
          "type": "uint256"
        },
        {
          "internalType": "string",
          "name": "tokenURI",
          "type": "string"
        }
      ],
      "name": "claimBadge",
      "outputs": [],
      "stateMutability": "nonpayable",
      "type": "function"
    },
    {
      "inputs": [
        {
          "internalType": "address",
          "name": "user",
          "type": "address"
        },
        {
          "internalType": "uint256",
          "name": "badgeId",
          "type": "uint256"
        }
      ],
      "name": "claimed",
      "outputs": [
        {
          "internalType": "bool",
          "name": "",
          "type": "bool"
        }
      ],
      "stateMutability": "view",
      "type": "function"
    },
    {
      "inputs": [
        {
          "internalType": "uint256",
          "name": "tokenId",
          "type": "uint256"
        }
      ],
      "name": "getApproved",
      "outputs": [
        {
          "internalType": "address",
          "name": "",
          "type": "address"
        }
      ],
      "stateMutability": "view",
      "type": "function"
    },
    {
      "inputs": [
        {
          "internalType": "uint256",
          "name": "",
          "type": "uint256"
        },
        {
          "internalType": "address",
          "name": "",
          "type": "address"
        }
      ],
      "name": "hasClaimed",
      "outputs": [
        {
          "internalType": "bool",
          "name": "",
          "type": "bool"
        }
      ],
      "stateMutability": "view",
      "type": "function"
    },
    {
      "inputs": [
        {
          "internalType": "address",
          "name": "owner",
          "type": "address"
        },
        {
          "internalType": "address",
          "name": "operator",
          "type": "address"
        }
      ],
      "name": "isApprovedForAll",
      "outputs": [
        {
          "internalType": "bool",
          "name": "",
          "type": "bool"
        }
      ],
      "stateMutability": "view",
      "type": "function"
    },
    {
      "inputs": [],
      "name": "name",
      "outputs": [
        {
          "internalType": "string",
          "name": "",
          "type": "string"
        }
      ],
      "stateMutability": "view",
      "type": "function"
    },
    {
      "inputs": [],
      "name": "nextTokenId",
      "outputs": [
        {
          "internalType": "uint256",
          "name": "",
          "type": "uint256"
        }
      ],
      "stateMutability": "view",
      "type": "function"
    },
    {
      "inputs": [],
      "name": "owner",
      "outputs": [
        {
          "internalType": "address",
          "name": "",
          "type": "address"
        }
      ],
      "stateMutability": "view",
      "type": "function"
    },
    {
      "inputs": [
        {
          "internalType": "uint256",
          "name": "tokenId",
          "type": "uint256"
        }
      ],
      "name": "ownerOf",
      "outputs": [
        {
          "internalType": "address",
          "name": "",
          "type": "address"
        }
      ],
      "stateMutability": "view",
      "type": "function"
    },
    {
      "inputs": [],
      "name": "renounceOwnership",
      "outputs": [],
      "stateMutability": "nonpayable",
      "type": "function"
    },
    {
      "inputs": [
        {
          "internalType": "address",
          "name": "from",
          "type": "address"
        },
        {
          "internalType": "address",
          "name": "to",
          "type": "address"
        },
        {
          "internalType": "uint256",
          "name": "tokenId",
          "type": "uint256"
        }
      ],
      "name": "safeTransferFrom",
      "outputs": [],
      "stateMutability": "nonpayable",
      "type": "function"
    },
    {
      "inputs": [
        {
          "internalType": "address",
          "name": "from",
          "type": "address"
        },
        {
          "internalType": "address",
          "name": "to",
          "type": "address"
        },
        {
          "internalType": "uint256",
          "name": "tokenId",
          "type": "uint256"
        },
        {
          "internalType": "bytes",
          "name": "data",
          "type": "bytes"
        }
      ],
      "name": "safeTransferFrom",
      "outputs": [],
      "stateMutability": "nonpayable",
      "type": "function"
    },
    {
      "inputs": [
        {
          "internalType": "address",
          "name": "operator",
          "type": "address"
        },
        {
          "internalType": "bool",
          "name": "approved",
          "type": "bool"
        }
      ],
      "name": "setApprovalForAll",
      "outputs": [],
      "stateMutability": "nonpayable",
      "type": "function"
    },
    {
      "inputs": [
        {
          "internalType": "bytes4",
          "name": "interfaceId",
          "type": "bytes4"
        }
      ],
      "name": "supportsInterface",
      "outputs": [
        {
          "internalType": "bool",
          "name": "",
          "type": "bool"
        }
      ],
      "stateMutability": "view",
      "type": "function"
    },
    {
      "inputs": [],
      "name": "symbol",
      "outputs": [
        {
          "internalType": "string",
          "name": "",
          "type": "string"
        }
      ],
      "stateMutability": "view",
      "type": "function"
    },
    {
      "inputs": [
        {
          "internalType": "uint256",
          "name": "tokenId",
          "type": "uint256"
        }
      ],
      "name": "tokenURI",
      "outputs": [
        {
          "internalType": "string",
          "name": "",
          "type": "string"
        }
      ],
      "stateMutability": "view",
      "type": "function"
    },
    {
      "inputs": [
        {
          "internalType": "address",
          "name": "from",
          "type": "address"
        },
        {
          "internalType": "address",
          "name": "to",
          "type": "address"
        },
        {
          "internalType": "uint256",
          "name": "tokenId",
          "type": "uint256"
        }
      ],
      "name": "transferFrom",
      "outputs": [],
      "stateMutability": "nonpayable",
      "type": "function"
    },
    {
      "inputs": [
        {
          "internalType": "address",
          "name": "newOwner",
          "type": "address"
        }
      ],
      "name": "transferOwnership",
      "outputs": [],
      "stateMutability": "nonpayable",
      "type": "function"
    }
  ],
  "bytecode": "0x608060405234801561001057600080fd5b50336040518060400160405280600a815260200169504f4c5020426164676560b01b815250604051806040016040528060048152602001630504f4c560e41b8152508160009081610061919061019f565b50600161006e828261019f565b5050506001600160a01b03811661009f57604051631e4fbdf760e01b81526000600482015260240160405180910390fd5b6100a8816100ae565b5061025d565b600780546001600160a01b038381166001600160a01b0319831681179093556040519116919082907f8be0079c531659141344cd1fd0a4f28419497f9722a3daafe3b4186f6b6457e090600090a35050565b634e487b7160e01b600052604160045260246000fd5b600181811c9082168061012a57607f821691505b60208210810361014a57634e487b7160e01b600052602260045260246000fd5b50919050565b601f82111561019a57806000526020600020601f840160051c810160208510156101775750805b601f840160051c820191505b818110156101975760008155600101610183565b50505b505050565b81516001600160401b038111156101b8576101b8610100565b6101cc816101c68454610116565b84610150565b6020601f82116001811461020057600083156101e85750848201515b600019600385901b1c1916600184901b178455610197565b600084815260208120601f198516915b828110156102305787850151825560209485019460019092019101610210565b508482101561024e5786840151600019600387901b60f8161c191681555b50505050600190811b01905550565b6115768061026c6000396000f3fe608060405234801561001057600080fd5b506004361061012c5760003560e01c806375794a3c116100ad578063b29e836a11610071578063b29e836a146102ab578063b88d4fde146102be578063c87b56dd146102d1578063e985e9c5146102e4578063f2fde38b146102f757600080fd5b806375794a3c14610248578063873f6f9e146102515780638da5cb5b1461027f57806395d89b4114610290578063a22cb4651461029857600080fd5b806342842e0e116100f457806342842e0e146101c15780634dd6c8de146101d45780636352211e1461020c57806370a082311461021f578063715018a61461024057600080fd5b806301ffc9a71461013157806306fdde0314610159578063081812fc1461016e578063095ea7b31461019957806323b872dd146101ae575b600080fd5b61014461013f366004611010565b61030a565b60405190151581526020015b60405180910390f35b610161610335565b604051610150919061107d565b61018161017c366004611090565b6103c7565b6040516001600160a01b039091168152602001610150565b6101ac6101a73660046110c5565b6103f0565b005b6101ac6101bc3660046110ef565b6103ff565b6101ac6101cf3660046110ef565b61048f565b6101446101e23660046110c5565b60009081526009602090815260408083206001600160a01b03949094168352929052205460ff1690565b61018161021a366004611090565b6104af565b61023261022d36600461112c565b6104ba565b604051908152602001610150565b6101ac610502565b61023260085481565b61014461025f366004611147565b600960209081526000928352604080842090915290825290205460ff1681565b6007546001600160a01b0316610181565b610161610516565b6101ac6102a6366004611173565b610525565b6101ac6102b936600461123f565b610530565b6101ac6102cc3660046112aa565b6105f9565b6101616102df366004611090565b610611565b6101446102f2366004611326565b610722565b6101ac61030536600461112c565b610750565b60006001600160e01b03198216632483248360e11b148061032f575061032f8261078e565b92915050565b60606000805461034490611350565b80601f016020809104026020016040519081016040528092919081815260200182805461037090611350565b80156103bd5780601f10610392576101008083540402835291602001916103bd565b820191906000526020600020905b8154815290600101906020018083116103a057829003601f168201915b5050505050905090565b60006103d2826107de565b506000828152600460205260409020546001600160a01b031661032f565b6103fb828233610817565b5050565b6001600160a01b03821661042e57604051633250574960e11b8152600060048201526024015b60405180910390fd5b600061043b838333610824565b9050836001600160a01b0316816001600160a01b031614610489576040516364283d7b60e01b81526001600160a01b0380861660048301526024820184905282166044820152606401610425565b50505050565b6104aa838383604051806020016040528060008152506105f9565b505050565b600061032f826107de565b60006001600160a01b0382166104e6576040516322718ad960e21b815260006004820152602401610425565b506001600160a01b031660009081526003602052604090205490565b61050a61091d565b610514600061094a565b565b60606001805461034490611350565b6103fb33838361099c565b61053861091d565b60008281526009602090815260408083206001600160a01b038716845290915290205460ff161561059d5760405162461bcd60e51b815260206004820152600f60248201526e105b1c9958591e4818db185a5b5959608a1b6044820152606401610425565b60088054600091826105ae8361138a565b9190505590506105be8482610a3b565b6105c88183610a55565b505060009081526009602090815260408083206001600160a01b03909416835292905220805460ff19166001179055565b6106048484846103ff565b6104893385858585610aa5565b606061061c826107de565b506000828152600660205260408120805461063690611350565b80601f016020809104026020016040519081016040528092919081815260200182805461066290611350565b80156106af5780601f10610684576101008083540402835291602001916106af565b820191906000526020600020905b81548152906001019060200180831161069257829003601f168201915b5050505050905060006106cd60408051602081019091526000815290565b905080516000036106df575092915050565b8151156107115780826040516020016106f99291906113b1565b60405160208183030381529060405292505050919050565b61071a84610bd0565b949350505050565b6001600160a01b03918216600090815260056020908152604080832093909416825291909152205460ff1690565b61075861091d565b6001600160a01b03811661078257604051631e4fbdf760e01b815260006004820152602401610425565b61078b8161094a565b50565b60006001600160e01b031982166380ac58cd60e01b14806107bf57506001600160e01b03198216635b5e139f60e01b145b8061032f57506301ffc9a760e01b6001600160e01b031983161461032f565b6000818152600260205260408120546001600160a01b03168061032f57604051637e27328960e01b815260048101849052602401610425565b6104aa8383836001610c45565b6000828152600260205260408120546001600160a01b039081169083161561085157610851818486610d4b565b6001600160a01b0381161561088f5761086e600085600080610c45565b6001600160a01b038116600090815260036020526040902080546000190190555b6001600160a01b038516156108be576001600160a01b0385166000908152600360205260409020805460010190555b60008481526002602052604080822080546001600160a01b0319166001600160a01b0389811691821790925591518793918516917fddf252ad1be2c89b69c2b068fc378daa952ba7f163c4a11628f55a4df523b3ef91a4949350505050565b6007546001600160a01b031633146105145760405163118cdaa760e01b8152336004820152602401610425565b600780546001600160a01b038381166001600160a01b0319831681179093556040519116919082907f8be0079c531659141344cd1fd0a4f28419497f9722a3daafe3b4186f6b6457e090600090a35050565b6001600160a01b0382166109ce57604051630b61174360e31b81526001600160a01b0383166004820152602401610425565b6001600160a01b03838116600081815260056020908152604080832094871680845294825291829020805460ff191686151590811790915591519182527f17307eab39ab6107e8899845ad3d59bd9653f200f220920489ca2b5937696c31910160405180910390a3505050565b6103fb828260405180602001604052806000815250610daf565b6000828152600660205260409020610a6d8282611427565b506040518281527ff8e1a15aba9398e019f0b49df1a4fde98ee17ae345cb5f6b5e2c27f5033e8ce79060200160405180910390a15050565b6001600160a01b0383163b15610bc957604051630a85bd0160e11b81526001600160a01b0384169063150b7a0290610ae79088908890879087906004016114e6565b6020604051808303816000875af1925050508015610b22575060408051601f3d908101601f19168201909252610b1f91810190611523565b60015b610b8b573d808015610b50576040519150601f19603f3d011682016040523d82523d6000602084013e610b55565b606091505b508051600003610b8357604051633250574960e11b81526001600160a01b0385166004820152602401610425565b805181602001fd5b6001600160e01b03198116630a85bd0160e11b14610bc757604051633250574960e11b81526001600160a01b0385166004820152602401610425565b505b5050505050565b6060610bdb826107de565b506000610bf360408051602081019091526000815290565b90506000815111610c135760405180602001604052806000815250610c3e565b80610c1d84610dc7565b604051602001610c2e9291906113b1565b6040516020818303038152906040525b9392505050565b8080610c5957506001600160a01b03821615155b15610d1b576000610c69846107de565b90506001600160a01b03831615801590610c955750826001600160a01b0316816001600160a01b031614155b8015610ca85750610ca68184610722565b155b15610cd15760405163a9fbf51f60e01b81526001600160a01b0384166004820152602401610425565b8115610d195783856001600160a01b0316826001600160a01b03167f8c5be1e5ebec7d5bd14f71427d1e84f3dd0314c0f7b2291e5b200ac8c7c3b92560405160405180910390a45b505b5050600090815260046020526040902080546001600160a01b0319166001600160a01b0392909216919091179055565b610d56838383610e5a565b6104aa576001600160a01b038316610d8457604051637e27328960e01b815260048101829052602401610425565b60405163177e802f60e01b81526001600160a01b038316600482015260248101829052604401610425565b610db98383610ebd565b6104aa336000858585610aa5565b60606000610dd483610f22565b600101905060008167ffffffffffffffff811115610df457610df46111af565b6040519080825280601f01601f191660200182016040528015610e1e576020820181803683370190505b5090508181016020015b600019016f181899199a1a9b1b9c1cb0b131b232b360811b600a86061a8153600a8504945084610e2857509392505050565b60006001600160a01b0383161580159061071a5750826001600160a01b0316846001600160a01b03161480610e945750610e948484610722565b8061071a5750506000908152600460205260409020546001600160a01b03908116911614919050565b6001600160a01b038216610ee757604051633250574960e11b815260006004820152602401610425565b6000610ef583836000610824565b90506001600160a01b038116156104aa576040516339e3563760e11b815260006004820152602401610425565b60008072184f03e93ff9f4daa797ed6e38ed64bf6a1f0160401b8310610f615772184f03e93ff9f4daa797ed6e38ed64bf6a1f0160401b830492506040015b6d04ee2d6d415b85acef81000000008310610f8d576d04ee2d6d415b85acef8100000000830492506020015b662386f26fc100008310610fab57662386f26fc10000830492506010015b6305f5e1008310610fc3576305f5e100830492506008015b6127108310610fd757612710830492506004015b60648310610fe9576064830492506002015b600a831061032f5760010192915050565b6001600160e01b03198116811461078b57600080fd5b60006020828403121561102257600080fd5b8135610c3e81610ffa565b60005b83811015611048578181015183820152602001611030565b50506000910152565b6000815180845261106981602086016020860161102d565b601f01601f19169290920160200192915050565b602081526000610c3e6020830184611051565b6000602082840312156110a257600080fd5b5035919050565b80356001600160a01b03811681146110c057600080fd5b919050565b600080604083850312156110d857600080fd5b6110e1836110a9565b946020939093013593505050565b60008060006060848603121561110457600080fd5b61110d846110a9565b925061111b602085016110a9565b929592945050506040919091013590565b60006020828403121561113e57600080fd5b610c3e826110a9565b6000806040838503121561115a57600080fd5b8235915061116a602084016110a9565b90509250929050565b6000806040838503121561118657600080fd5b61118f836110a9565b9150602083013580151581146111a457600080fd5b809150509250929050565b634e487b7160e01b600052604160045260246000fd5b60008067ffffffffffffffff8411156111e0576111e06111af565b50604051601f19601f85018116603f0116810181811067ffffffffffffffff8211171561120f5761120f6111af565b60405283815290508082840185101561122757600080fd5b83836020830137600060208583010152509392505050565b60008060006060848603121561125457600080fd5b61125d846110a9565b925060208401359150604084013567ffffffffffffffff81111561128057600080fd5b8401601f8101861361129157600080fd5b6112a0868235602084016111c5565b9150509250925092565b600080600080608085870312156112c057600080fd5b6112c9856110a9565b93506112d7602086016110a9565b925060408501359150606085013567ffffffffffffffff8111156112fa57600080fd5b8501601f8101871361130b57600080fd5b61131a878235602084016111c5565b91505092959194509250565b6000806040838503121561133957600080fd5b611342836110a9565b915061116a602084016110a9565b600181811c9082168061136457607f821691505b60208210810361138457634e487b7160e01b600052602260045260246000fd5b50919050565b6000600182016113aa57634e487b7160e01b600052601160045260246000fd5b5060010190565b600083516113c381846020880161102d565b8351908301906113d781836020880161102d565b01949350505050565b601f8211156104aa57806000526020600020601f840160051c810160208510156114075750805b601f840160051c820191505b81811015610bc95760008155600101611413565b815167ffffffffffffffff811115611441576114416111af565b6114558161144f8454611350565b846113e0565b6020601f82116001811461148957600083156114715750848201515b600019600385901b1c1916600184901b178455610bc9565b600084815260208120601f198516915b828110156114b95787850151825560209485019460019092019101611499565b50848210156114d75786840151600019600387901b60f8161c191681555b50505050600190811b01905550565b6001600160a01b038581168252841660208201526040810183905260806060820181905260009061151990830184611051565b9695505050505050565b60006020828403121561153557600080fd5b8151610c3e81610ffa56fea26469706673582212201c5c65a2114c884bbc755e56c02144a5538116d5483b6fdc1a12fe342075d07264736f6c634300081a0033",
  "linkReferences": {},
  "deployedLinkReferences": {}
}